{
  "contractName": "AuctionRAND",
  "abi": [
    {
      "inputs": [
        {
          "internalType": "address payable",
          "name": "_owner",
          "type": "address"
        },
        {
          "internalType": "address",
          "name": "tokenAddress",
          "type": "address"
        },
        {
          "internalType": "uint256",
          "name": "price",
          "type": "uint256"
        }
      ],
      "stateMutability": "nonpayable",
      "type": "constructor"
    },
    {
      "anonymous": false,
      "inputs": [
        {
          "indexed": false,
          "internalType": "uint256",
          "name": "auctionId",
          "type": "uint256"
        },
        {
          "indexed": false,
          "internalType": "address",
          "name": "bidder",
          "type": "address"
        },
        {
          "indexed": false,
          "internalType": "uint256",
          "name": "amount",
          "type": "uint256"
        }
      ],
      "name": "HighestBidIncreased",
      "type": "event"
    },
    {
      "inputs": [],
      "name": "owner",
      "outputs": [
        {
          "internalType": "address",
          "name": "",
          "type": "address"
        }
      ],
      "stateMutability": "view",
      "type": "function"
    },
    {
      "inputs": [
        {
          "internalType": "bool",
          "name": "state",
          "type": "bool"
        }
      ],
      "name": "toggleRefundIn",
      "outputs": [],
      "stateMutability": "nonpayable",
      "type": "function"
    },
    {
      "inputs": [
        {
          "internalType": "bool",
          "name": "state",
          "type": "bool"
        }
      ],
      "name": "toggleShutdown",
      "outputs": [],
      "stateMutability": "nonpayable",
      "type": "function"
    },
    {
      "inputs": [
        {
          "internalType": "uint256",
          "name": "newPrice",
          "type": "uint256"
        }
      ],
      "name": "changePrice",
      "outputs": [],
      "stateMutability": "nonpayable",
      "type": "function"
    },
    {
      "inputs": [
        {
          "internalType": "address",
          "name": "newOwner",
          "type": "address"
        }
      ],
      "name": "changeOwner",
      "outputs": [],
      "stateMutability": "nonpayable",
      "type": "function"
    },
    {
      "inputs": [],
      "name": "rakein",
      "outputs": [],
      "stateMutability": "nonpayable",
      "type": "function"
    },
    {
      "inputs": [
        {
          "internalType": "bytes32",
          "name": "_blindedBid",
          "type": "bytes32"
        }
      ],
      "name": "bid",
      "outputs": [],
      "stateMutability": "payable",
      "type": "function"
    },
    {
      "inputs": [
        {
          "internalType": "uint256",
          "name": "auctionId",
          "type": "uint256"
        },
        {
          "internalType": "uint256",
          "name": "value",
          "type": "uint256"
        },
        {
          "internalType": "bytes32",
          "name": "secret",
          "type": "bytes32"
        }
      ],
      "name": "reveal",
      "outputs": [],
      "stateMutability": "nonpayable",
      "type": "function"
    },
    {
      "inputs": [
        {
          "internalType": "uint256",
          "name": "auctionId",
          "type": "uint256"
        }
      ],
      "name": "withdraw",
      "outputs": [],
      "stateMutability": "nonpayable",
      "type": "function"
    }
  ],
  "bytecode": "0x608060405234801561001057600080fd5b50604051611d00380380611d008339818101604052606081101561003357600080fd5b8101908080519060200190929190805190602001909291908051906020019092919050505082600c60006101000a81548173ffffffffffffffffffffffffffffffffffffffff021916908373ffffffffffffffffffffffffffffffffffffffff1602179055508060058190555081600660006101000a81548173ffffffffffffffffffffffffffffffffffffffff021916908373ffffffffffffffffffffffffffffffffffffffff1602179055506301e133804201600481905550620151804201600381905550505050611bf48061010c6000396000f3fe6080604052600436106100865760003560e01c8063963191e111610059578063963191e11461019a578063a12c4a0a146101b1578063a2b40d19146101ee578063a6f9dae114610229578063d00183fb1461027a57610086565b80632e1a7d4d1461008b57806361d49ea8146100c65780638da5cb5b14610115578063957bb1e01461016c575b600080fd5b34801561009757600080fd5b506100c4600480360360208110156100ae57600080fd5b81019080803590602001909291905050506102b7565b005b3480156100d257600080fd5b50610113600480360360608110156100e957600080fd5b810190808035906020019092919080359060200190929190803590602001909291905050506107df565b005b34801561012157600080fd5b5061012a610aa7565b604051808273ffffffffffffffffffffffffffffffffffffffff1673ffffffffffffffffffffffffffffffffffffffff16815260200191505060405180910390f35b6101986004803603602081101561018257600080fd5b8101908080359060200190929190505050610acd565b005b3480156101a657600080fd5b506101af610dd5565b005b3480156101bd57600080fd5b506101ec600480360360208110156101d457600080fd5b81019080803515159060200190929190505050610fce565b005b3480156101fa57600080fd5b506102276004803603602081101561021157600080fd5b8101908080359060200190929190505050611135565b005b34801561023557600080fd5b506102786004803603602081101561024c57600080fd5b81019080803573ffffffffffffffffffffffffffffffffffffffff169060200190929190505050611202565b005b34801561028657600080fd5b506102b56004803603602081101561029d57600080fd5b81019080803515159060200190929190505050611309565b005b60006008600083815260200190815260200160002060003373ffffffffffffffffffffffffffffffffffffffff1673ffffffffffffffffffffffffffffffffffffffff168152602001908152602001600020549050610314611abc565b600a60008481526020019081526020016000206040518060a00160405290816000820160009054906101000a900473ffffffffffffffffffffffffffffffffffffffff1673ffffffffffffffffffffffffffffffffffffffff1673ffffffffffffffffffffffffffffffffffffffff1681526020016001820154815260200160028201548152602001600382015481526020016004820160009054906101000a900460ff161515151581525050905060008211156107da576000809054906101000a900460ff16806103ef575062278d008160600151420310155b6103f857600080fd5b60006008600085815260200190815260200160002060003373ffffffffffffffffffffffffffffffffffffffff1673ffffffffffffffffffffffffffffffffffffffff16815260200190815260200160002081905550610456611b03565b600b60003373ffffffffffffffffffffffffffffffffffffffff1673ffffffffffffffffffffffffffffffffffffffff168152602001908152602001600020604051806060016040529081600082015481526020016001820160009054906101000a900460ff1615151515815260200160028201548152505090503373ffffffffffffffffffffffffffffffffffffffff16826000015173ffffffffffffffffffffffffffffffffffffffff1614156105f357600660009054906101000a900473ffffffffffffffffffffffffffffffffffffffff1673ffffffffffffffffffffffffffffffffffffffff1663a9059cbb3384604001516040518363ffffffff1660e01b8152600401808373ffffffffffffffffffffffffffffffffffffffff1673ffffffffffffffffffffffffffffffffffffffff16815260200182815260200192505050602060405180830381600087803b1580156105b657600080fd5b505af11580156105ca573d6000803e3d6000fd5b505050506040513d60208110156105e057600080fd5b8101908080519060200190929190505050505b806020015115801561063757503373ffffffffffffffffffffffffffffffffffffffff166108fc849081150290604051600060405180830381858888f19350505050155b1561069657826008600086815260200190815260200160002060003373ffffffffffffffffffffffffffffffffffffffff1673ffffffffffffffffffffffffffffffffffffffff168152602001908152602001600020819055506107d8565b8060200151156107d757600660009054906101000a900473ffffffffffffffffffffffffffffffffffffffff1673ffffffffffffffffffffffffffffffffffffffff1663a9059cbb3360055486026040518363ffffffff1660e01b8152600401808373ffffffffffffffffffffffffffffffffffffffff1673ffffffffffffffffffffffffffffffffffffffff16815260200182815260200192505050602060405180830381600087803b15801561074d57600080fd5b505af1158015610761573d6000803e3d6000fd5b505050506040513d602081101561077757600080fd5b81019080805190602001909291905050505060008090508073ffffffffffffffffffffffffffffffffffffffff166108fc859081150290604051600060405180830381858888f193505050501580156107d4573d6000803e3d6000fd5b50505b5b505b505050565b60025483141561084b576107f1611495565b610846576040517f08c379a0000000000000000000000000000000000000000000000000000000008152600401808060200182810382526024815260200180611b276024913960400191505060405180910390fd5b6108a6565b82600254116108a5576040517f08c379a0000000000000000000000000000000000000000000000000000000008152600401808060200182810382526021815260200180611b9e6021913960400191505060405180910390fd5b5b6108ae611abc565b600a60008581526020019081526020016000206040518060a00160405290816000820160009054906101000a900473ffffffffffffffffffffffffffffffffffffffff1673ffffffffffffffffffffffffffffffffffffffff1673ffffffffffffffffffffffffffffffffffffffff1681526020016001820154815260200160028201548152602001600382015481526020016004820160009054906101000a900460ff161515151581525050905080608001518015610976575062278d0081606001514203105b61097f57600080fd5b60006009600086815260200190815260200160002060003373ffffffffffffffffffffffffffffffffffffffff1673ffffffffffffffffffffffffffffffffffffffff1681526020019081526020016000209050838360405160200180838152602001828152602001925050506040516020818303038152906040528051906020012081600001541415610aa057600081600101549050848110610a3457610a288633876117f1565b15610a335784810390505b5b6000801b8260000181905550806008600088815260200190815260200160002060003373ffffffffffffffffffffffffffffffffffffffff1673ffffffffffffffffffffffffffffffffffffffff16815260200190815260200160002060008282540192505081905550505b5050505050565b600c60009054906101000a900473ffffffffffffffffffffffffffffffffffffffff1681565b6000809054906101000a900460ff1615610b32576040517f08c379a000000000000000000000000000000000000000000000000000000000815260040180806020018281038252602c815260200180611b72602c913960400191505060405180910390fd5b6000610b3c611495565b9050610b46611b03565b600b60003373ffffffffffffffffffffffffffffffffffffffff1673ffffffffffffffffffffffffffffffffffffffff168152602001908152602001600020604051806060016040529081600082015481526020016001820160009054906101000a900460ff161515151581526020016002820154815250509050600081600001511415610c4957428160000181815250506000600180540190506103e8811115610c3c576040517f08c379a0000000000000000000000000000000000000000000000000000000008152600401808060200182810382526027815260200180611b4b6027913960400191505060405180910390fd5b8060018190555050610cd1565b81610cd057620151808160400151600354031015610ccf576040517f08c379a000000000000000000000000000000000000000000000000000000000815260040180806020018281038252601f8152602001807f5573657273206d6179206f6e6c7920626964206f6e636520706572206461790081525060200191505060405180910390fd5b5b5b4281604001818152505080600b60003373ffffffffffffffffffffffffffffffffffffffff1673ffffffffffffffffffffffffffffffffffffffff1681526020019081526020016000206000820151816000015560208201518160010160006101000a81548160ff0219169083151502179055506040820151816002015590505060405180604001604052808481526020013481525060096000600254815260200190815260200160002060003373ffffffffffffffffffffffffffffffffffffffff1673ffffffffffffffffffffffffffffffffffffffff1681526020019081526020016000206000820151816000015560208201518160010155905050505050565b3373ffffffffffffffffffffffffffffffffffffffff16600c60009054906101000a900473ffffffffffffffffffffffffffffffffffffffff1673ffffffffffffffffffffffffffffffffffffffff1614610e98576040517f08c379a00000000000000000000000000000000000000000000000000000000081526004018080602001828103825260148152602001807f53656e646572206d757374206265206f776e657200000000000000000000000081525060200191505060405180910390fd5b426004541115610ea757600080fd5b600660009054906101000a900473ffffffffffffffffffffffffffffffffffffffff1673ffffffffffffffffffffffffffffffffffffffff1663a9059cbb600c60009054906101000a900473ffffffffffffffffffffffffffffffffffffffff166007546040518363ffffffff1660e01b8152600401808373ffffffffffffffffffffffffffffffffffffffff1673ffffffffffffffffffffffffffffffffffffffff16815260200182815260200192505050602060405180830381600087803b158015610f7457600080fd5b505af1158015610f88573d6000803e3d6000fd5b505050506040513d6020811015610f9e57600080fd5b8101908080519060200190929190505050506301e133806004600082825401925050819055506000600781905550565b3373ffffffffffffffffffffffffffffffffffffffff16600c60009054906101000a900473ffffffffffffffffffffffffffffffffffffffff1673ffffffffffffffffffffffffffffffffffffffff1614611091576040517f08c379a00000000000000000000000000000000000000000000000000000000081526004018080602001828103825260148152602001807f53656e646572206d757374206265206f776e657200000000000000000000000081525060200191505060405180910390fd5b8015156000809054906101000a900460ff1615151415611119576040517f08c379a000000000000000000000000000000000000000000000000000000000815260040180806020018281038252601b8152602001807f676976656e20737461746520616c726561647920746f67676c6564000000000081525060200191505060405180910390fd5b806000806101000a81548160ff02191690831515021790555050565b3373ffffffffffffffffffffffffffffffffffffffff16600c60009054906101000a900473ffffffffffffffffffffffffffffffffffffffff1673ffffffffffffffffffffffffffffffffffffffff16146111f8576040517f08c379a00000000000000000000000000000000000000000000000000000000081526004018080602001828103825260148152602001807f53656e646572206d757374206265206f776e657200000000000000000000000081525060200191505060405180910390fd5b8060058190555050565b3373ffffffffffffffffffffffffffffffffffffffff16600c60009054906101000a900473ffffffffffffffffffffffffffffffffffffffff1673ffffffffffffffffffffffffffffffffffffffff16146112c5576040517f08c379a00000000000000000000000000000000000000000000000000000000081526004018080602001828103825260148152602001807f53656e646572206d757374206265206f776e657200000000000000000000000081525060200191505060405180910390fd5b80600c60006101000a81548173ffffffffffffffffffffffffffffffffffffffff021916908373ffffffffffffffffffffffffffffffffffffffff16021790555050565b611311611b03565b600b60003373ffffffffffffffffffffffffffffffffffffffff1673ffffffffffffffffffffffffffffffffffffffff168152602001908152602001600020604051806060016040529081600082015481526020016001820160009054906101000a900460ff16151515158152602001600282015481525050905081151581602001511515141561140a576040517f08c379a000000000000000000000000000000000000000000000000000000000815260040180806020018281038252601b8152602001807f676976656e20737461746520616c726561647920746f67676c6564000000000081525060200191505060405180910390fd5b8181602001901515908115158152505080600b60003373ffffffffffffffffffffffffffffffffffffffff1673ffffffffffffffffffffffffffffffffffffffff1681526020019081526020016000206000820151816000015560208201518160010160006101000a81548160ff021916908315150217905550604082015181600201559050505050565b60006003544211156117e0576114a9611abc565b600a600060025481526020019081526020016000206040518060a00160405290816000820160009054906101000a900473ffffffffffffffffffffffffffffffffffffffff1673ffffffffffffffffffffffffffffffffffffffff1673ffffffffffffffffffffffffffffffffffffffff1681526020016001820154815260200160028201548152602001600382015481526020016004820160009054906101000a900460ff1615151515815250509050600181608001901515908115158152505080600a6000600254815260200190815260200160002060008201518160000160006101000a81548173ffffffffffffffffffffffffffffffffffffffff021916908373ffffffffffffffffffffffffffffffffffffffff16021790555060208201518160010155604082015181600201556060820151816003015560808201518160040160006101000a81548160ff021916908315150217905550905050600060016064600143034060001c8161161e57fe5b0601905060006064605a83028161163157fe5b049050600660009054906101000a900473ffffffffffffffffffffffffffffffffffffffff1673ffffffffffffffffffffffffffffffffffffffff1663a0712d68836040518263ffffffff1660e01b815260040180828152602001915050600060405180830381600087803b1580156116a957600080fd5b505af11580156116bd573d6000803e3d6000fd5b505050508082036007600082825401925050819055506201518060036000828254019250508190555060016002600082825401925050819055506040518060a00160405280600073ffffffffffffffffffffffffffffffffffffffff16815260200160008152602001828152602001600354815260200160001515815250600a6000600254815260200190815260200160002060008201518160000160006101000a81548173ffffffffffffffffffffffffffffffffffffffff021916908373ffffffffffffffffffffffffffffffffffffffff16021790555060208201518160010155604082015181600201556060820151816003015560808201518160040160006101000a81548160ff0219169083151502179055509050505050506117e9565b600090506117ee565b600190505b90565b60006117fb611abc565b600a60008681526020019081526020016000206040518060a00160405290816000820160009054906101000a900473ffffffffffffffffffffffffffffffffffffffff1673ffffffffffffffffffffffffffffffffffffffff1673ffffffffffffffffffffffffffffffffffffffff1681526020016001820154815260200160028201548152602001600382015481526020016004820160009054906101000a900460ff1615151515815250509050806020015183116118bf576000915050611ab5565b600073ffffffffffffffffffffffffffffffffffffffff16816000015173ffffffffffffffffffffffffffffffffffffffff161461195e578060200151600860008781526020019081526020016000206000836000015173ffffffffffffffffffffffffffffffffffffffff1673ffffffffffffffffffffffffffffffffffffffff168152602001908152602001600020600082825401925050819055505b8281602001818152505083816000019073ffffffffffffffffffffffffffffffffffffffff16908173ffffffffffffffffffffffffffffffffffffffff168152505080600a600087815260200190815260200160002060008201518160000160006101000a81548173ffffffffffffffffffffffffffffffffffffffff021916908373ffffffffffffffffffffffffffffffffffffffff16021790555060208201518160010155604082015181600201556060820151816003015560808201518160040160006101000a81548160ff0219169083151502179055509050507fda0a18da71d8ebd145966339a728fc0d8ccc07c22870d561890d823c515dda6b858585604051808481526020018373ffffffffffffffffffffffffffffffffffffffff1673ffffffffffffffffffffffffffffffffffffffff168152602001828152602001935050505060405180910390a160019150505b9392505050565b6040518060a00160405280600073ffffffffffffffffffffffffffffffffffffffff1681526020016000815260200160008152602001600081526020016000151581525090565b60405180606001604052806000815260200160001515815260200160008152509056fe63616e6e6f742072657665616c20666f7220616e206f6e676f696e672061756374696f6e53797374656d20737570706f7274732061206d6178696d756d206f6620313030302075736572734e65772062696473206e6f7420616c6c6f77656420696e2073797374656d2073687574646f776e206d6f646563616e206f6e6c792072657665616c20666f7220706173742061756374696f6e73a26469706673582212202b4901d8b3566fa390e9d416b0394def2df951493400cbc917dcf19a0a2f747d64736f6c63430006020033",
  "source": "pragma solidity^0.6.2;\n\nimport \"contracts/token.sol\";\n\ncontract AuctionRAND \n{    \n    // Events that will be emitted on changes.\n    event HighestBidIncreased(uint auctionId, address bidder, uint amount);\n\n    struct Bid {\n        bytes32 blinded;\n        uint deposit;\n    }\n\n    struct Auction { \n        address highestBidder;\n        uint highestBid;\n        uint pot;\n\n        uint deadline;\n        bool ended;\n    }\n\n    struct User {\n        uint signedUp; // timestamp for when the user signed up to participate in auctions\n        bool refundinRAND; // TRUE indicates that user wants refunds to be paid in RAND\n        uint lastBid; // timestamp of the user's last bid\n    }\n\n    bool shutdown; // false by default, if true no new bids are allowed and users may only withdraw\n    uint userCount; // maximum limit of 1000 users\n    uint auctionIndex; // the auction count starting from the date of launch, incrementing every 24 hours\n    \n    uint whenNextAuctionEnds; // when an auction ends, this critical timestamp is updated\n    uint whenNextRakeIn; // needed for rakein function\n\n    \n    uint RANDperETH; // we use a dummy constant to represent the latest price of RAND \n    TokenRAND token; // reference to the RAND ERC20 token contract itself\n\n    // Every day, the system mints a random amount (1-100) of RAND tokens\n    // that go into a pot for auction. 10% of this is the system rake\n    uint rake;\n\n    // auction -> user -> toRefund\n    mapping (uint => mapping(address => uint)) pendingReturns;\n    // auction -> user -> bid\n    mapping (uint => mapping(address => Bid)) bids;\n\n    mapping (uint => Auction) auctions;\n    mapping (address => User) users;\n    \n    address public owner;\n    modifier onlyOwner() { \n        require (owner == msg.sender, \"Sender must be owner\"); \n        _;\n    }\n\n    constructor(address payable _owner, address tokenAddress, uint price) public {\n        owner = _owner;\n        RANDperETH = price;\n        token = TokenRAND(tokenAddress);\n        whenNextRakeIn = now + 365 days;\n        whenNextAuctionEnds = now + 1 days;\n    }\n    \n    function toggleRefundIn(bool state) public {\n        User memory user = users[msg.sender];\n        require(\n            user.refundinRAND != state,\n            \"given state already toggled\"\n        );\n        user.refundinRAND = state;\n        users[msg.sender] = user;\n    }\n    // Simple administrative functions\n    function toggleShutdown(bool state) public onlyOwner {\n        require(\n            shutdown != state,\n            \"given state already toggled\"\n        );\n        shutdown = state;\n    }\n    function changePrice(uint newPrice) public onlyOwner { RANDperETH = newPrice; }\n    function changeOwner(address newOwner) public onlyOwner { owner = newOwner; }\n    \n    // Once per year, the owner draws revenue from the system, and takes a 10% cut \n    // of all the RAND winnings locked in the system at that point in time.\n    function rakein() public onlyOwner {\n        require(whenNextRakeIn <= now);\n        token.transfer(owner, rake);\n        whenNextRakeIn += 365 days;\n        rake = 0;\n    }\n\n    function placeBid(uint auctionId, address bidder, uint value) internal returns (bool success) {\n        Auction memory auction = auctions[auctionId];\n        if (value <= auction.highestBid) {\n            return false;\n        }\n        if (auction.highestBidder != address(0)) {\n            // Refund the previously highest bidder.\n            pendingReturns[auctionId][auction.highestBidder] += auction.highestBid;\n        }\n        auction.highestBid = value;\n        auction.highestBidder = bidder;\n        auctions[auctionId] = auction;\n        emit HighestBidIncreased(auctionId, bidder, value);\n        return true;\n    }\n    \n    function update() internal returns (bool success) {\n        if (now > whenNextAuctionEnds) {\n            Auction memory auction = auctions[auctionIndex];\n            auction.ended = true;\n            auctions[auctionIndex] = auction;\n\n            uint randomMintAmt = uint(blockhash(block.number - 1)) % 100 + 1;\n            uint mintAmtMinusCut = randomMintAmt * 90 / 100;\n            \n            token.mint(randomMintAmt);\n            rake += randomMintAmt - mintAmtMinusCut;\n            whenNextAuctionEnds += 1 days;\n            auctionIndex += 1;\n            \n            auctions[auctionIndex] = Auction(address(0), 0, mintAmtMinusCut, whenNextAuctionEnds, false);\n        } else return false;\n        return true; // the ongoing auction has been updated\n    }\n\n    // users fund their blinded bid balance with an ETH amount \n    function bid(bytes32 _blindedBid) public payable {\n        require(!shutdown, \"New bids not allowed in system shutdown mode\");\n        bool updated = update();\n        User memory user = users[msg.sender];\n        if (user.signedUp == 0) {\n            user.signedUp = now;\n            uint newCount = userCount + 1;\n            require(newCount <= 1000, \"System supports a maximum of 1000 users\");\n            userCount = newCount;\n        } else if (!updated) {\n            require(whenNextAuctionEnds - user.lastBid >= 86400, \"Users may only bid once per day\"); \n        }\n        user.lastBid = now;\n        users[msg.sender] = user;\n        bids[auctionIndex][msg.sender] = Bid(_blindedBid, msg.value);\n    }\n\n    function reveal(uint auctionId, uint value, bytes32 secret) public {\n        if (auctionId == auctionIndex) {\n            require(update(), \"cannot reveal for an ongoing auction\");\n        }\n        else {\n            require(auctionIndex > auctionId, \"can only reveal for past auctions\");\n        }\n        Auction memory auction = auctions[auctionId];\n        // after committing their bid before an auction is over, \n        // bidders have 30 days to reveal their bids before they may withdraw their refund\n        require(auction.ended && now - auction.deadline < 30 days);\n\n        Bid storage bidToCheck = bids[auctionId][msg.sender]; \n        if (bidToCheck.blinded == keccak256(abi.encodePacked(value, secret))) { \n            uint refund = bidToCheck.deposit;\n            if (refund >= value) {\n                if (placeBid(auctionId, msg.sender, value))\n                    refund -= value;\n            } // otherwise, invalid bid, do not take it into account and just refund the deposit\n            // Make it impossible for the sender to re-claim the same deposit.\n            bidToCheck.blinded = bytes32(0);\n            pendingReturns[auctionId][msg.sender] += refund;\n        }\n    }\n\n    /* \n     * If the user won an auction, \n     * Each non-winning bid becomes refundable after 30 days from when it was made. \n     * The bid is refunded in the currency the user chose when they signed up. \n     * If they chose RAND, the system mints them an amount of RAND equal in value \n     * to their ETH bid, and burns their ETH bid.\n    */\n    function withdraw(uint auctionId) public {\n        uint amount = pendingReturns[auctionId][msg.sender];\n        Auction memory auction = auctions[auctionId];\n        if (amount > 0) { \n            // It is important to set this to zero because the recipient\n            // can call this function again as part of the receiving call\n            // before `send` returns.\n            require(shutdown || now - auction.deadline >= 30 days);\n            pendingReturns[auctionId][msg.sender] = 0;\n            \n            User memory user = users[msg.sender];\n\n            if (auction.highestBidder == msg.sender) {\n                token.transfer(msg.sender, auction.pot);\n            }\n            if (!user.refundinRAND && !msg.sender.send(amount)) {\n                // No need to call throw here, just reset the amount owing\n                pendingReturns[auctionId][msg.sender] = amount;\n            } else if (user.refundinRAND) {\n                // not using safemath because we are confident on the upper bounds\n                token.transfer(msg.sender, amount * RANDperETH);\n                address payable burner = address(0);\n                burner.transfer(amount);\n            }   \n        }\n    }\n}\n",
  "sourcePath": "/home/ricardo/Downloads/challenge/contracts/auction.sol",
  "compiler": {
    "name": "solc",
    "version": "0.6.2+commit.bacdbe57.Emscripten.clang"
  },
  "schemaVersion": "3.2.4",
  "updatedAt": "2020-08-30T19:30:57.647Z",
  "devdoc": {
    "methods": {}
  },
  "userdoc": {
    "methods": {}
  }
}